{
  "contractName": "DeFi",
  "abi": [
    {
      "inputs": [
        {
          "internalType": "contract Token",
          "name": "_token",
          "type": "address"
        },
        {
          "internalType": "contract Reward",
          "name": "_reward",
          "type": "address"
        }
      ],
      "stateMutability": "nonpayable",
      "type": "constructor"
    },
    {
      "inputs": [
        {
          "internalType": "address",
          "name": "",
          "type": "address"
        }
      ],
      "name": "hasStaked",
      "outputs": [
        {
          "internalType": "bool",
          "name": "",
          "type": "bool"
        }
      ],
      "stateMutability": "view",
      "type": "function",
      "constant": true
    },
    {
      "inputs": [
        {
          "internalType": "address",
          "name": "",
          "type": "address"
        }
      ],
      "name": "isStaking",
      "outputs": [
        {
          "internalType": "bool",
          "name": "",
          "type": "bool"
        }
      ],
      "stateMutability": "view",
      "type": "function",
      "constant": true
    },
    {
      "inputs": [],
      "name": "name",
      "outputs": [
        {
          "internalType": "string",
          "name": "",
          "type": "string"
        }
      ],
      "stateMutability": "view",
      "type": "function",
      "constant": true
    },
    {
      "inputs": [],
      "name": "owner",
      "outputs": [
        {
          "internalType": "address",
          "name": "",
          "type": "address"
        }
      ],
      "stateMutability": "view",
      "type": "function",
      "constant": true
    },
    {
      "inputs": [],
      "name": "reward",
      "outputs": [
        {
          "internalType": "contract Reward",
          "name": "",
          "type": "address"
        }
      ],
      "stateMutability": "view",
      "type": "function",
      "constant": true
    },
    {
      "inputs": [
        {
          "internalType": "uint256",
          "name": "",
          "type": "uint256"
        }
      ],
      "name": "stakers",
      "outputs": [
        {
          "internalType": "address",
          "name": "",
          "type": "address"
        }
      ],
      "stateMutability": "view",
      "type": "function",
      "constant": true
    },
    {
      "inputs": [
        {
          "internalType": "address",
          "name": "",
          "type": "address"
        }
      ],
      "name": "stakingBalance",
      "outputs": [
        {
          "internalType": "uint256",
          "name": "",
          "type": "uint256"
        }
      ],
      "stateMutability": "view",
      "type": "function",
      "constant": true
    },
    {
      "inputs": [],
      "name": "token",
      "outputs": [
        {
          "internalType": "contract Token",
          "name": "",
          "type": "address"
        }
      ],
      "stateMutability": "view",
      "type": "function",
      "constant": true
    },
    {
      "inputs": [
        {
          "internalType": "uint256",
          "name": "_value",
          "type": "uint256"
        }
      ],
      "name": "depositTokens",
      "outputs": [],
      "stateMutability": "nonpayable",
      "type": "function"
    },
    {
      "inputs": [],
      "name": "issueRewards",
      "outputs": [],
      "stateMutability": "nonpayable",
      "type": "function"
    },
    {
      "inputs": [],
      "name": "withdrawTokens",
      "outputs": [],
      "stateMutability": "nonpayable",
      "type": "function"
    }
  ],
  "bytecode": "0x60806040523480156200001157600080fd5b506040516200148b3803806200148b8339818101604052810190620000379190620002c2565b336000806101000a81548173ffffffffffffffffffffffffffffffffffffffff021916908373ffffffffffffffffffffffffffffffffffffffff1602179055506040518060400160405280600481526020017f444546490000000000000000000000000000000000000000000000000000000081525060019080519060200190620000c49291906200014f565b5081600260006101000a81548173ffffffffffffffffffffffffffffffffffffffff021916908373ffffffffffffffffffffffffffffffffffffffff16021790555080600360006101000a81548173ffffffffffffffffffffffffffffffffffffffff021916908373ffffffffffffffffffffffffffffffffffffffff16021790555050506200036d565b8280546200015d9062000338565b90600052602060002090601f016020900481019282620001815760008555620001cd565b82601f106200019c57805160ff1916838001178555620001cd565b82800160010185558215620001cd579182015b82811115620001cc578251825591602001919060010190620001af565b5b509050620001dc9190620001e0565b5090565b5b80821115620001fb576000816000905550600101620001e1565b5090565b600080fd5b600073ffffffffffffffffffffffffffffffffffffffff82169050919050565b6000620002318262000204565b9050919050565b6000620002458262000224565b9050919050565b620002578162000238565b81146200026357600080fd5b50565b60008151905062000277816200024c565b92915050565b60006200028a8262000224565b9050919050565b6200029c816200027d565b8114620002a857600080fd5b50565b600081519050620002bc8162000291565b92915050565b60008060408385031215620002dc57620002db620001ff565b5b6000620002ec8582860162000266565b9250506020620002ff85828601620002ab565b9150509250929050565b7f4e487b7100000000000000000000000000000000000000000000000000000000600052602260045260246000fd5b600060028204905060018216806200035157607f821691505b60208210810362000367576200036662000309565b5b50919050565b61110e806200037d6000396000f3fe608060405234801561001057600080fd5b50600436106100a95760003560e01c80638da5cb5b116100715780638da5cb5b14610154578063b0370e0c14610172578063c93c8f341461017c578063dd49756e146101ac578063fc0c546a146101c8578063fd5e6dd1146101e6576100a9565b806306fdde03146100ae578063228cb733146100cc57806345bc78ab146100ea5780636f49712b1461011a5780638d8f2adb1461014a575b600080fd5b6100b6610216565b6040516100c39190610aa4565b60405180910390f35b6100d46102a4565b6040516100e19190610b45565b60405180910390f35b61010460048036038101906100ff9190610ba3565b6102ca565b6040516101119190610be9565b60405180910390f35b610134600480360381019061012f9190610ba3565b6102e2565b6040516101419190610c1f565b60405180910390f35b610152610302565b005b61015c6104ca565b6040516101699190610c49565b60405180910390f35b61017a6104ee565b005b61019660048036038101906101919190610ba3565b6106e2565b6040516101a39190610c1f565b60405180910390f35b6101c660048036038101906101c19190610c90565b610702565b005b6101d06109a6565b6040516101dd9190610cde565b60405180910390f35b61020060048036038101906101fb9190610c90565b6109cc565b60405161020d9190610c49565b60405180910390f35b6001805461022390610d28565b80601f016020809104026020016040519081016040528092919081815260200182805461024f90610d28565b801561029c5780601f106102715761010080835404028352916020019161029c565b820191906000526020600020905b81548152906001019060200180831161027f57829003601f168201915b505050505081565b600360009054906101000a900473ffffffffffffffffffffffffffffffffffffffff1681565b60056020528060005260406000206000915090505481565b60076020528060005260406000206000915054906101000a900460ff1681565b6000600560003373ffffffffffffffffffffffffffffffffffffffff1673ffffffffffffffffffffffffffffffffffffffff16815260200190815260200160002054905060008111610389576040517f08c379a000000000000000000000000000000000000000000000000000000000815260040161038090610dcb565b60405180910390fd5b600260009054906101000a900473ffffffffffffffffffffffffffffffffffffffff1673ffffffffffffffffffffffffffffffffffffffff1663a9059cbb33836040518363ffffffff1660e01b81526004016103e6929190610deb565b6020604051808303816000875af1158015610405573d6000803e3d6000fd5b505050506040513d601f19601f820116820180604052508101906104299190610e40565b506000600560003373ffffffffffffffffffffffffffffffffffffffff1673ffffffffffffffffffffffffffffffffffffffff168152602001908152602001600020819055506000600760003373ffffffffffffffffffffffffffffffffffffffff1673ffffffffffffffffffffffffffffffffffffffff16815260200190815260200160002060006101000a81548160ff02191690831515021790555050565b60008054906101000a900473ffffffffffffffffffffffffffffffffffffffff1681565b60008054906101000a900473ffffffffffffffffffffffffffffffffffffffff1673ffffffffffffffffffffffffffffffffffffffff163373ffffffffffffffffffffffffffffffffffffffff161461057c576040517f08c379a000000000000000000000000000000000000000000000000000000000815260040161057390610eb9565b60405180910390fd5b60005b6004805490508110156106df576000600482815481106105a2576105a1610ed9565b5b9060005260206000200160009054906101000a900473ffffffffffffffffffffffffffffffffffffffff16905060006009600560008473ffffffffffffffffffffffffffffffffffffffff1673ffffffffffffffffffffffffffffffffffffffff1681526020019081526020016000205461061d9190610f66565b905060008111156106ca57600360009054906101000a900473ffffffffffffffffffffffffffffffffffffffff1673ffffffffffffffffffffffffffffffffffffffff1663a9059cbb83836040518363ffffffff1660e01b8152600401610685929190610deb565b6020604051808303816000875af11580156106a4573d6000803e3d6000fd5b505050506040513d601f19601f820116820180604052508101906106c89190610e40565b505b505080806106d790610f97565b91505061057f565b50565b60066020528060005260406000206000915054906101000a900460ff1681565b60008111610745576040517f08c379a000000000000000000000000000000000000000000000000000000000815260040161073c9061102b565b60405180910390fd5b600260009054906101000a900473ffffffffffffffffffffffffffffffffffffffff1673ffffffffffffffffffffffffffffffffffffffff166323b872dd3330846040518463ffffffff1660e01b81526004016107a49392919061104b565b6020604051808303816000875af11580156107c3573d6000803e3d6000fd5b505050506040513d601f19601f820116820180604052508101906107e79190610e40565b5080600560003373ffffffffffffffffffffffffffffffffffffffff1673ffffffffffffffffffffffffffffffffffffffff16815260200190815260200160002060008282546108379190611082565b92505081905550600660003373ffffffffffffffffffffffffffffffffffffffff1673ffffffffffffffffffffffffffffffffffffffff16815260200190815260200160002060009054906101000a900460ff166108f3576004339080600181540180825580915050600190039060005260206000200160009091909190916101000a81548173ffffffffffffffffffffffffffffffffffffffff021916908373ffffffffffffffffffffffffffffffffffffffff1602179055505b6001600760003373ffffffffffffffffffffffffffffffffffffffff1673ffffffffffffffffffffffffffffffffffffffff16815260200190815260200160002060006101000a81548160ff0219169083151502179055506001600660003373ffffffffffffffffffffffffffffffffffffffff1673ffffffffffffffffffffffffffffffffffffffff16815260200190815260200160002060006101000a81548160ff02191690831515021790555050565b600260009054906101000a900473ffffffffffffffffffffffffffffffffffffffff1681565b600481815481106109dc57600080fd5b906000526020600020016000915054906101000a900473ffffffffffffffffffffffffffffffffffffffff1681565b600081519050919050565b600082825260208201905092915050565b60005b83811015610a45578082015181840152602081019050610a2a565b83811115610a54576000848401525b50505050565b6000601f19601f8301169050919050565b6000610a7682610a0b565b610a808185610a16565b9350610a90818560208601610a27565b610a9981610a5a565b840191505092915050565b60006020820190508181036000830152610abe8184610a6b565b905092915050565b600073ffffffffffffffffffffffffffffffffffffffff82169050919050565b6000819050919050565b6000610b0b610b06610b0184610ac6565b610ae6565b610ac6565b9050919050565b6000610b1d82610af0565b9050919050565b6000610b2f82610b12565b9050919050565b610b3f81610b24565b82525050565b6000602082019050610b5a6000830184610b36565b92915050565b600080fd5b6000610b7082610ac6565b9050919050565b610b8081610b65565b8114610b8b57600080fd5b50565b600081359050610b9d81610b77565b92915050565b600060208284031215610bb957610bb8610b60565b5b6000610bc784828501610b8e565b91505092915050565b6000819050919050565b610be381610bd0565b82525050565b6000602082019050610bfe6000830184610bda565b92915050565b60008115159050919050565b610c1981610c04565b82525050565b6000602082019050610c346000830184610c10565b92915050565b610c4381610b65565b82525050565b6000602082019050610c5e6000830184610c3a565b92915050565b610c6d81610bd0565b8114610c7857600080fd5b50565b600081359050610c8a81610c64565b92915050565b600060208284031215610ca657610ca5610b60565b5b6000610cb484828501610c7b565b91505092915050565b6000610cc882610b12565b9050919050565b610cd881610cbd565b82525050565b6000602082019050610cf36000830184610ccf565b92915050565b7f4e487b7100000000000000000000000000000000000000000000000000000000600052602260045260246000fd5b60006002820490506001821680610d4057607f821691505b602082108103610d5357610d52610cf9565b5b50919050565b7f596f75206d7573742068617665207374616b656420746f6b656e7320746f207760008201527f6974686472617700000000000000000000000000000000000000000000000000602082015250565b6000610db5602783610a16565b9150610dc082610d59565b604082019050919050565b60006020820190508181036000830152610de481610da8565b9050919050565b6000604082019050610e006000830185610c3a565b610e0d6020830184610bda565b9392505050565b610e1d81610c04565b8114610e2857600080fd5b50565b600081519050610e3a81610e14565b92915050565b600060208284031215610e5657610e55610b60565b5b6000610e6484828501610e2b565b91505092915050565b7f5468652063616c6c6572206d75737420626520746865206f776e657200000000600082015250565b6000610ea3601c83610a16565b9150610eae82610e6d565b602082019050919050565b60006020820190508181036000830152610ed281610e96565b9050919050565b7f4e487b7100000000000000000000000000000000000000000000000000000000600052603260045260246000fd5b7f4e487b7100000000000000000000000000000000000000000000000000000000600052601260045260246000fd5b7f4e487b7100000000000000000000000000000000000000000000000000000000600052601160045260246000fd5b6000610f7182610bd0565b9150610f7c83610bd0565b925082610f8c57610f8b610f08565b5b828204905092915050565b6000610fa282610bd0565b91507fffffffffffffffffffffffffffffffffffffffffffffffffffffffffffffffff8203610fd457610fd3610f37565b5b600182019050919050565b7f416d6f756e74206d7573742062652067726561746572207468616e2030000000600082015250565b6000611015601d83610a16565b915061102082610fdf565b602082019050919050565b6000602082019050818103600083015261104481611008565b9050919050565b60006060820190506110606000830186610c3a565b61106d6020830185610c3a565b61107a6040830184610bda565b949350505050565b600061108d82610bd0565b915061109883610bd0565b9250827fffffffffffffffffffffffffffffffffffffffffffffffffffffffffffffffff038211156110cd576110cc610f37565b5b82820190509291505056fea2646970667358221220640ca31b43a5ac27c2014bb12410d7af043a8060916277b8cb37f0b159bffd1164736f6c634300080e0033",
  "immutableReferences": {},
  "source": "// SPDX-License-Identifier: GPL-3.0\npragma solidity >=0.8.0 <0.9.0;\n\nimport \"./Token.sol\";\nimport \"./Reward.sol\";\n\ncontract DeFi {\n  address public owner;\n  string public name;\n  Token public token;\n  Reward public reward;\n\n  address[] public stakers;\n\n  mapping(address => uint256) public stakingBalance;\n  mapping(address => bool) public hasStaked;\n  mapping(address => bool) public isStaking;\n\n  constructor(Token _token, Reward _reward) {\n    owner = msg.sender;\n    name = \"DEFI\";\n    token = _token;\n    reward = _reward;\n  }\n\n  //staking function\n  function depositTokens(uint256 _value) public {\n    require(_value > 0, \"Amount must be greater than 0\");\n    //Transfer tokens to this contract address for staking\n    token.transferFrom(msg.sender, address(this), _value);\n    //updating staing balance\n    stakingBalance[msg.sender] += _value;\n\n    if (!hasStaked[msg.sender]) {\n      //updating stakers array\n      stakers.push(msg.sender);\n    }\n    //updating staking status\n    isStaking[msg.sender] = true;\n    hasStaked[msg.sender] = true;\n  }\n\n  function issueRewards() public {\n    //calculate total staked tokens\n    require(msg.sender == owner, \"The caller must be the owner\");\n\n    for (uint256 i = 0; i < stakers.length; i++) {\n      address staker = stakers[i];\n      uint256 earned = stakingBalance[staker] / 9;\n      //transfer reward to staker\n      if (earned > 0) {\n        reward.transfer(staker, earned);\n      }\n    }\n  }\n\n  function withdrawTokens() public {\n    uint256 balance = stakingBalance[msg.sender];\n    require(balance > 0, \"You must have staked tokens to withdraw\");\n\n    //transfer tokens to sender\n    token.transfer(msg.sender, balance);\n    //updating staking balance\n    stakingBalance[msg.sender] = 0;\n    //updating staking status\n    isStaking[msg.sender] = false;\n  }\n}\n",
  "sourcePath": "/Users/xolmer/code/contracts-test-ground/xolmerdefi/contracts/DeFi.sol",
  "compiler": {
    "name": "solc",
    "version": "0.8.14+commit.80d49f37.Emscripten.clang"
  },
  "schemaVersion": "3.4.7",
  "updatedAt": "2022-06-07T20:32:57.155Z",
  "networkType": "ethereum",
  "devdoc": {
    "kind": "dev",
    "methods": {},
    "version": 1
  },
  "userdoc": {
    "kind": "user",
    "methods": {},
    "version": 1
  }
}