{
  "contractName": "DeFi",
  "abi": [
    {
      "inputs": [
        {
          "internalType": "contract Reward",
          "name": "_reward",
          "type": "address"
        },
        {
          "internalType": "contract Token",
          "name": "_token",
          "type": "address"
        }
      ],
      "stateMutability": "nonpayable",
      "type": "constructor"
    },
    {
      "inputs": [],
      "name": "name",
      "outputs": [
        {
          "internalType": "string",
          "name": "",
          "type": "string"
        }
      ],
      "stateMutability": "view",
      "type": "function",
      "constant": true
    },
    {
      "inputs": [],
      "name": "owner",
      "outputs": [
        {
          "internalType": "address",
          "name": "",
          "type": "address"
        }
      ],
      "stateMutability": "view",
      "type": "function",
      "constant": true
    },
    {
      "inputs": [],
      "name": "reward",
      "outputs": [
        {
          "internalType": "contract Reward",
          "name": "",
          "type": "address"
        }
      ],
      "stateMutability": "view",
      "type": "function",
      "constant": true
    },
    {
      "inputs": [],
      "name": "token",
      "outputs": [
        {
          "internalType": "contract Token",
          "name": "",
          "type": "address"
        }
      ],
      "stateMutability": "view",
      "type": "function",
      "constant": true
    }
  ],
  "bytecode": "0x608060405234801561001057600080fd5b506040516107763803806107768339818101604052810190610032919061029d565b336000806101000a81548173ffffffffffffffffffffffffffffffffffffffff021916908373ffffffffffffffffffffffffffffffffffffffff1602179055506040518060400160405280600481526020017f4465466900000000000000000000000000000000000000000000000000000000815250600190805190602001906100bd929190610147565b5080600260006101000a81548173ffffffffffffffffffffffffffffffffffffffff021916908373ffffffffffffffffffffffffffffffffffffffff16021790555081600360006101000a81548173ffffffffffffffffffffffffffffffffffffffff021916908373ffffffffffffffffffffffffffffffffffffffff160217905550505061033d565b8280546101539061030c565b90600052602060002090601f01602090048101928261017557600085556101bc565b82601f1061018e57805160ff19168380011785556101bc565b828001600101855582156101bc579182015b828111156101bb5782518255916020019190600101906101a0565b5b5090506101c991906101cd565b5090565b5b808211156101e65760008160009055506001016101ce565b5090565b600080fd5b600073ffffffffffffffffffffffffffffffffffffffff82169050919050565b600061021a826101ef565b9050919050565b600061022c8261020f565b9050919050565b61023c81610221565b811461024757600080fd5b50565b60008151905061025981610233565b92915050565b600061026a8261020f565b9050919050565b61027a8161025f565b811461028557600080fd5b50565b60008151905061029781610271565b92915050565b600080604083850312156102b4576102b36101ea565b5b60006102c28582860161024a565b92505060206102d385828601610288565b9150509250929050565b7f4e487b7100000000000000000000000000000000000000000000000000000000600052602260045260246000fd5b6000600282049050600182168061032457607f821691505b602082108103610337576103366102dd565b5b50919050565b61042a8061034c6000396000f3fe608060405234801561001057600080fd5b506004361061004c5760003560e01c806306fdde0314610051578063228cb7331461006f5780638da5cb5b1461008d578063fc0c546a146100ab575b600080fd5b6100596100c9565b6040516100669190610260565b60405180910390f35b610077610157565b6040516100849190610301565b60405180910390f35b61009561017d565b6040516100a2919061033d565b60405180910390f35b6100b36101a1565b6040516100c09190610379565b60405180910390f35b600180546100d6906103c3565b80601f0160208091040260200160405190810160405280929190818152602001828054610102906103c3565b801561014f5780601f106101245761010080835404028352916020019161014f565b820191906000526020600020905b81548152906001019060200180831161013257829003601f168201915b505050505081565b600360009054906101000a900473ffffffffffffffffffffffffffffffffffffffff1681565b60008054906101000a900473ffffffffffffffffffffffffffffffffffffffff1681565b600260009054906101000a900473ffffffffffffffffffffffffffffffffffffffff1681565b600081519050919050565b600082825260208201905092915050565b60005b838110156102015780820151818401526020810190506101e6565b83811115610210576000848401525b50505050565b6000601f19601f8301169050919050565b6000610232826101c7565b61023c81856101d2565b935061024c8185602086016101e3565b61025581610216565b840191505092915050565b6000602082019050818103600083015261027a8184610227565b905092915050565b600073ffffffffffffffffffffffffffffffffffffffff82169050919050565b6000819050919050565b60006102c76102c26102bd84610282565b6102a2565b610282565b9050919050565b60006102d9826102ac565b9050919050565b60006102eb826102ce565b9050919050565b6102fb816102e0565b82525050565b600060208201905061031660008301846102f2565b92915050565b600061032782610282565b9050919050565b6103378161031c565b82525050565b6000602082019050610352600083018461032e565b92915050565b6000610363826102ce565b9050919050565b61037381610358565b82525050565b600060208201905061038e600083018461036a565b92915050565b7f4e487b7100000000000000000000000000000000000000000000000000000000600052602260045260246000fd5b600060028204905060018216806103db57607f821691505b6020821081036103ee576103ed610394565b5b5091905056fea26469706673582212202156f3137eba406c221ad773278030b1ea41ecffe2976162ca854d0052cc76c964736f6c634300080e0033",
  "immutableReferences": {},
  "source": "// SPDX-License-Identifier: GPL-3.0\npragma solidity >=0.8.0 <0.9.0;\n\nimport \"./Token.sol\";\nimport \"./Reward.sol\";\n\ncontract DeFi {\n  address public owner;\n  string public name;\n  Token public token;\n  Reward public reward;\n\n  constructor(Reward _reward, Token _token) {\n    owner = msg.sender;\n    name = \"DeFi\";\n    token = _token;\n    reward = _reward;\n  }\n}\n",
  "sourcePath": "/Users/xolmer/code/contracts-test-ground/xolmerdefi/contracts/DeFi.sol",
  "compiler": {
    "name": "solc",
    "version": "0.8.14+commit.80d49f37.Emscripten.clang"
  },
  "schemaVersion": "3.4.7",
  "updatedAt": "2022-06-02T19:18:18.139Z",
  "networkType": "ethereum",
  "devdoc": {
    "kind": "dev",
    "methods": {},
    "version": 1
  },
  "userdoc": {
    "kind": "user",
    "methods": {},
    "version": 1
  }
}