{
  "contractName": "Reward",
  "abi": [
    {
      "inputs": [],
      "stateMutability": "nonpayable",
      "type": "constructor"
    },
    {
      "anonymous": false,
      "inputs": [
        {
          "indexed": true,
          "internalType": "address",
          "name": "owner",
          "type": "address"
        },
        {
          "indexed": true,
          "internalType": "address",
          "name": "spender",
          "type": "address"
        },
        {
          "indexed": false,
          "internalType": "uint256",
          "name": "value",
          "type": "uint256"
        }
      ],
      "name": "Approval",
      "type": "event"
    },
    {
      "anonymous": false,
      "inputs": [
        {
          "indexed": true,
          "internalType": "address",
          "name": "from",
          "type": "address"
        },
        {
          "indexed": true,
          "internalType": "address",
          "name": "to",
          "type": "address"
        },
        {
          "indexed": false,
          "internalType": "uint256",
          "name": "value",
          "type": "uint256"
        }
      ],
      "name": "Transfer",
      "type": "event"
    },
    {
      "inputs": [
        {
          "internalType": "address",
          "name": "",
          "type": "address"
        },
        {
          "internalType": "address",
          "name": "",
          "type": "address"
        }
      ],
      "name": "allowance",
      "outputs": [
        {
          "internalType": "uint256",
          "name": "",
          "type": "uint256"
        }
      ],
      "stateMutability": "view",
      "type": "function",
      "constant": true
    },
    {
      "inputs": [
        {
          "internalType": "address",
          "name": "",
          "type": "address"
        }
      ],
      "name": "balances",
      "outputs": [
        {
          "internalType": "uint256",
          "name": "",
          "type": "uint256"
        }
      ],
      "stateMutability": "view",
      "type": "function",
      "constant": true
    },
    {
      "inputs": [],
      "name": "decimals",
      "outputs": [
        {
          "internalType": "uint256",
          "name": "",
          "type": "uint256"
        }
      ],
      "stateMutability": "view",
      "type": "function",
      "constant": true
    },
    {
      "inputs": [],
      "name": "name",
      "outputs": [
        {
          "internalType": "string",
          "name": "",
          "type": "string"
        }
      ],
      "stateMutability": "view",
      "type": "function",
      "constant": true
    },
    {
      "inputs": [],
      "name": "owner",
      "outputs": [
        {
          "internalType": "address",
          "name": "",
          "type": "address"
        }
      ],
      "stateMutability": "view",
      "type": "function",
      "constant": true
    },
    {
      "inputs": [],
      "name": "symbol",
      "outputs": [
        {
          "internalType": "string",
          "name": "",
          "type": "string"
        }
      ],
      "stateMutability": "view",
      "type": "function",
      "constant": true
    },
    {
      "inputs": [],
      "name": "totalSupply",
      "outputs": [
        {
          "internalType": "uint256",
          "name": "",
          "type": "uint256"
        }
      ],
      "stateMutability": "view",
      "type": "function",
      "constant": true
    },
    {
      "inputs": [
        {
          "internalType": "address",
          "name": "tokenOwner",
          "type": "address"
        }
      ],
      "name": "balanceOf",
      "outputs": [
        {
          "internalType": "uint256",
          "name": "balance",
          "type": "uint256"
        }
      ],
      "stateMutability": "view",
      "type": "function",
      "constant": true
    },
    {
      "inputs": [
        {
          "internalType": "address",
          "name": "_to",
          "type": "address"
        },
        {
          "internalType": "uint256",
          "name": "_value",
          "type": "uint256"
        }
      ],
      "name": "transfer",
      "outputs": [
        {
          "internalType": "bool",
          "name": "success",
          "type": "bool"
        }
      ],
      "stateMutability": "nonpayable",
      "type": "function"
    },
    {
      "inputs": [
        {
          "internalType": "address",
          "name": "_spender",
          "type": "address"
        },
        {
          "internalType": "uint256",
          "name": "_value",
          "type": "uint256"
        }
      ],
      "name": "approve",
      "outputs": [
        {
          "internalType": "bool",
          "name": "success",
          "type": "bool"
        }
      ],
      "stateMutability": "nonpayable",
      "type": "function"
    },
    {
      "inputs": [
        {
          "internalType": "address",
          "name": "_from",
          "type": "address"
        },
        {
          "internalType": "address",
          "name": "_to",
          "type": "address"
        },
        {
          "internalType": "uint256",
          "name": "_value",
          "type": "uint256"
        }
      ],
      "name": "transferFrom",
      "outputs": [
        {
          "internalType": "bool",
          "name": "success",
          "type": "bool"
        }
      ],
      "stateMutability": "nonpayable",
      "type": "function"
    }
  ],
  "bytecode": "0x60806040526040518060400160405280600c81526020017f52455741524420544f4b454e0000000000000000000000000000000000000000815250600090805190602001906200005192919062000186565b506040518060400160405280600481526020017f5257445400000000000000000000000000000000000000000000000000000000815250600190805190602001906200009f92919062000186565b506012600255600254600a620000b69190620003c3565b620f4240620000c6919062000414565b600355348015620000d657600080fd5b5033600460006101000a81548173ffffffffffffffffffffffffffffffffffffffff021916908373ffffffffffffffffffffffffffffffffffffffff16021790555060035460056000600460009054906101000a900473ffffffffffffffffffffffffffffffffffffffff1673ffffffffffffffffffffffffffffffffffffffff1673ffffffffffffffffffffffffffffffffffffffff16815260200190815260200160002081905550620004d9565b8280546200019490620004a4565b90600052602060002090601f016020900481019282620001b8576000855562000204565b82601f10620001d357805160ff191683800117855562000204565b8280016001018555821562000204579182015b8281111562000203578251825591602001919060010190620001e6565b5b50905062000213919062000217565b5090565b5b808211156200023257600081600090555060010162000218565b5090565b7f4e487b7100000000000000000000000000000000000000000000000000000000600052601160045260246000fd5b60008160011c9050919050565b6000808291508390505b6001851115620002c4578086048111156200029c576200029b62000236565b5b6001851615620002ac5780820291505b8081029050620002bc8562000265565b94506200027c565b94509492505050565b600082620002df5760019050620003b2565b81620002ef5760009050620003b2565b8160018114620003085760028114620003135762000349565b6001915050620003b2565b60ff84111562000328576200032762000236565b5b8360020a91508482111562000342576200034162000236565b5b50620003b2565b5060208310610133831016604e8410600b8410161715620003835782820a9050838111156200037d576200037c62000236565b5b620003b2565b62000392848484600162000272565b92509050818404811115620003ac57620003ab62000236565b5b81810290505b9392505050565b6000819050919050565b6000620003d082620003b9565b9150620003dd83620003b9565b92506200040c7fffffffffffffffffffffffffffffffffffffffffffffffffffffffffffffffff8484620002cd565b905092915050565b60006200042182620003b9565b91506200042e83620003b9565b9250817fffffffffffffffffffffffffffffffffffffffffffffffffffffffffffffffff04831182151516156200046a576200046962000236565b5b828202905092915050565b7f4e487b7100000000000000000000000000000000000000000000000000000000600052602260045260246000fd5b60006002820490506001821680620004bd57607f821691505b602082108103620004d357620004d262000475565b5b50919050565b610e8a80620004e96000396000f3fe608060405234801561001057600080fd5b50600436106100a95760003560e01c8063313ce56711610071578063313ce5671461017a57806370a08231146101985780638da5cb5b146101c857806395d89b41146101e6578063a9059cbb14610204578063dd62ed3e14610234576100a9565b806306fdde03146100ae578063095ea7b3146100cc57806318160ddd146100fc57806323b872dd1461011a57806327e235e31461014a575b600080fd5b6100b6610264565b6040516100c39190610a1e565b60405180910390f35b6100e660048036038101906100e19190610ad9565b6102f2565b6040516100f39190610b34565b60405180910390f35b6101046103e4565b6040516101119190610b5e565b60405180910390f35b610134600480360381019061012f9190610b79565b6103ea565b6040516101419190610b34565b60405180910390f35b610164600480360381019061015f9190610bcc565b6106a6565b6040516101719190610b5e565b60405180910390f35b6101826106be565b60405161018f9190610b5e565b60405180910390f35b6101b260048036038101906101ad9190610bcc565b6106c4565b6040516101bf9190610b5e565b60405180910390f35b6101d061070d565b6040516101dd9190610c08565b60405180910390f35b6101ee610733565b6040516101fb9190610a1e565b60405180910390f35b61021e60048036038101906102199190610ad9565b6107c1565b60405161022b9190610b34565b60405180910390f35b61024e60048036038101906102499190610c23565b610960565b60405161025b9190610b5e565b60405180910390f35b6000805461027190610c92565b80601f016020809104026020016040519081016040528092919081815260200182805461029d90610c92565b80156102ea5780601f106102bf576101008083540402835291602001916102ea565b820191906000526020600020905b8154815290600101906020018083116102cd57829003601f168201915b505050505081565b600081600660003373ffffffffffffffffffffffffffffffffffffffff1673ffffffffffffffffffffffffffffffffffffffff16815260200190815260200160002060008573ffffffffffffffffffffffffffffffffffffffff1673ffffffffffffffffffffffffffffffffffffffff168152602001908152602001600020819055508273ffffffffffffffffffffffffffffffffffffffff163373ffffffffffffffffffffffffffffffffffffffff167f8c5be1e5ebec7d5bd14f71427d1e84f3dd0314c0f7b2291e5b200ac8c7c3b925846040516103d29190610b5e565b60405180910390a36001905092915050565b60035481565b600081600560008673ffffffffffffffffffffffffffffffffffffffff1673ffffffffffffffffffffffffffffffffffffffff16815260200190815260200160002054101561046e576040517f08c379a000000000000000000000000000000000000000000000000000000000815260040161046590610d0f565b60405180910390fd5b81600660008673ffffffffffffffffffffffffffffffffffffffff1673ffffffffffffffffffffffffffffffffffffffff16815260200190815260200160002060003373ffffffffffffffffffffffffffffffffffffffff1673ffffffffffffffffffffffffffffffffffffffff1681526020019081526020016000205410156104f757600080fd5b81600560008673ffffffffffffffffffffffffffffffffffffffff1673ffffffffffffffffffffffffffffffffffffffff16815260200190815260200160002060008282546105469190610d5e565b9250508190555081600560008573ffffffffffffffffffffffffffffffffffffffff1673ffffffffffffffffffffffffffffffffffffffff168152602001908152602001600020600082825461059c9190610d92565b9250508190555081600660008673ffffffffffffffffffffffffffffffffffffffff1673ffffffffffffffffffffffffffffffffffffffff16815260200190815260200160002060003373ffffffffffffffffffffffffffffffffffffffff1673ffffffffffffffffffffffffffffffffffffffff168152602001908152602001600020600082825461062f9190610d5e565b925050819055508273ffffffffffffffffffffffffffffffffffffffff168473ffffffffffffffffffffffffffffffffffffffff167fddf252ad1be2c89b69c2b068fc378daa952ba7f163c4a11628f55a4df523b3ef846040516106939190610b5e565b60405180910390a3600190509392505050565b60056020528060005260406000206000915090505481565b60025481565b6000600560008373ffffffffffffffffffffffffffffffffffffffff1673ffffffffffffffffffffffffffffffffffffffff168152602001908152602001600020549050919050565b600460009054906101000a900473ffffffffffffffffffffffffffffffffffffffff1681565b6001805461074090610c92565b80601f016020809104026020016040519081016040528092919081815260200182805461076c90610c92565b80156107b95780601f1061078e576101008083540402835291602001916107b9565b820191906000526020600020905b81548152906001019060200180831161079c57829003601f168201915b505050505081565b600081600560003373ffffffffffffffffffffffffffffffffffffffff1673ffffffffffffffffffffffffffffffffffffffff168152602001908152602001600020541015610845576040517f08c379a000000000000000000000000000000000000000000000000000000000815260040161083c90610e34565b60405180910390fd5b81600560003373ffffffffffffffffffffffffffffffffffffffff1673ffffffffffffffffffffffffffffffffffffffff16815260200190815260200160002060008282546108949190610d5e565b9250508190555081600560008573ffffffffffffffffffffffffffffffffffffffff1673ffffffffffffffffffffffffffffffffffffffff16815260200190815260200160002060008282546108ea9190610d92565b925050819055508273ffffffffffffffffffffffffffffffffffffffff163373ffffffffffffffffffffffffffffffffffffffff167fddf252ad1be2c89b69c2b068fc378daa952ba7f163c4a11628f55a4df523b3ef8460405161094e9190610b5e565b60405180910390a36001905092915050565b6006602052816000526040600020602052806000526040600020600091509150505481565b600081519050919050565b600082825260208201905092915050565b60005b838110156109bf5780820151818401526020810190506109a4565b838111156109ce576000848401525b50505050565b6000601f19601f8301169050919050565b60006109f082610985565b6109fa8185610990565b9350610a0a8185602086016109a1565b610a13816109d4565b840191505092915050565b60006020820190508181036000830152610a3881846109e5565b905092915050565b600080fd5b600073ffffffffffffffffffffffffffffffffffffffff82169050919050565b6000610a7082610a45565b9050919050565b610a8081610a65565b8114610a8b57600080fd5b50565b600081359050610a9d81610a77565b92915050565b6000819050919050565b610ab681610aa3565b8114610ac157600080fd5b50565b600081359050610ad381610aad565b92915050565b60008060408385031215610af057610aef610a40565b5b6000610afe85828601610a8e565b9250506020610b0f85828601610ac4565b9150509250929050565b60008115159050919050565b610b2e81610b19565b82525050565b6000602082019050610b496000830184610b25565b92915050565b610b5881610aa3565b82525050565b6000602082019050610b736000830184610b4f565b92915050565b600080600060608486031215610b9257610b91610a40565b5b6000610ba086828701610a8e565b9350506020610bb186828701610a8e565b9250506040610bc286828701610ac4565b9150509250925092565b600060208284031215610be257610be1610a40565b5b6000610bf084828501610a8e565b91505092915050565b610c0281610a65565b82525050565b6000602082019050610c1d6000830184610bf9565b92915050565b60008060408385031215610c3a57610c39610a40565b5b6000610c4885828601610a8e565b9250506020610c5985828601610a8e565b9150509250929050565b7f4e487b7100000000000000000000000000000000000000000000000000000000600052602260045260246000fd5b60006002820490506001821680610caa57607f821691505b602082108103610cbd57610cbc610c63565b5b50919050565b7f496e73756666696369656e74205265776172642062616c616e63650000000000600082015250565b6000610cf9601b83610990565b9150610d0482610cc3565b602082019050919050565b60006020820190508181036000830152610d2881610cec565b9050919050565b7f4e487b7100000000000000000000000000000000000000000000000000000000600052601160045260246000fd5b6000610d6982610aa3565b9150610d7483610aa3565b925082821015610d8757610d86610d2f565b5b828203905092915050565b6000610d9d82610aa3565b9150610da883610aa3565b9250827fffffffffffffffffffffffffffffffffffffffffffffffffffffffffffffffff03821115610ddd57610ddc610d2f565b5b828201905092915050565b7f496e73756666696369656e742062616c616e6365000000000000000000000000600082015250565b6000610e1e601483610990565b9150610e2982610de8565b602082019050919050565b60006020820190508181036000830152610e4d81610e11565b905091905056fea2646970667358221220aa7b45f6b30ad7d2ad364868109b9ebd5d56f7150334e2b467f836864f89ce1664736f6c634300080e0033",
  "immutableReferences": {},
  "source": "// SPDX-License-Identifier: GPL-3.0\npragma solidity >=0.8.0 <0.9.0;\n\n///@author Kaveh Aidivandi\n\ninterface RewardInterface {\n  function totalSupply() external view returns (uint256);\n\n  function balanceOf(address tokenOwner)\n    external\n    view\n    returns (uint256 balance);\n\n  function transfer(address _to, uint256 _value)\n    external\n    returns (bool success);\n\n  function allowance(address tokenOwner, address spender)\n    external\n    view\n    returns (uint256 remaining);\n\n  function approve(address _spender, uint256 _value)\n    external\n    returns (bool success);\n\n  function transferFrom(\n    address _from,\n    address _to,\n    uint256 _value\n  ) external returns (bool success);\n}\n\ncontract Reward is RewardInterface {\n  string public name = \"REWARD TOKEN\";\n  string public symbol = \"RWDT\";\n  uint256 public decimals = 18;\n  uint256 public totalSupply = 1000000 * 10**decimals;\n  address public owner;\n\n  mapping(address => uint256) public balances;\n\n  // Allowance is the amount of tokens that an owner allowed to a spender.\n  mapping(address => mapping(address => uint256)) public allowance;\n\n  // Event emitted when a transfer is made\n  event Transfer(address indexed from, address indexed to, uint256 value);\n  event Approval(address indexed owner, address indexed spender, uint256 value);\n\n  constructor() {\n    owner = msg.sender;\n    balances[owner] = totalSupply;\n  }\n\n  function balanceOf(address tokenOwner)\n    public\n    view\n    override\n    returns (uint256 balance)\n  {\n    return balances[tokenOwner];\n  }\n\n  // Transfer tokens from one address to another\n  function transfer(address _to, uint256 _value)\n    public\n    override\n    returns (bool success)\n  {\n    require(balances[msg.sender] >= _value, \"Insufficient balance\");\n\n    balances[msg.sender] -= _value;\n    balances[_to] += _value;\n\n    emit Transfer(msg.sender, _to, _value);\n    return true;\n  }\n\n  function approve(address _spender, uint256 _value)\n    public\n    override\n    returns (bool success)\n  {\n    allowance[msg.sender][_spender] = _value;\n    emit Approval(msg.sender, _spender, _value);\n    return true;\n  }\n\n  function transferFrom(\n    address _from,\n    address _to,\n    uint256 _value\n  ) external override returns (bool success) {\n    require(balances[_from] >= _value, \"Insufficient Reward balance\");\n    require(allowance[_from][msg.sender] >= _value);\n    // Add the balance for transferfrom\n    balances[_from] -= _value;\n    // substract the balance for transferfrom\n    balances[_to] += _value;\n\n    allowance[_from][msg.sender] -= _value;\n\n    emit Transfer(_from, _to, _value);\n    return true;\n  }\n}\n",
  "sourcePath": "/Users/xolmer/code/contracts-test-ground/xolmerdefi/contracts/Reward.sol",
  "compiler": {
    "name": "solc",
    "version": "0.8.14+commit.80d49f37.Emscripten.clang"
  },
  "schemaVersion": "3.4.7",
  "updatedAt": "2022-06-05T18:56:06.713Z",
  "networkType": "ethereum",
  "devdoc": {
    "kind": "dev",
    "methods": {},
    "version": 1
  },
  "userdoc": {
    "kind": "user",
    "methods": {},
    "version": 1
  }
}