{
  "contractName": "Tether",
  "abi": [
    {
      "inputs": [
        {
          "internalType": "address",
          "name": "",
          "type": "address"
        }
      ],
      "name": "balances",
      "outputs": [
        {
          "internalType": "uint256",
          "name": "",
          "type": "uint256"
        }
      ],
      "stateMutability": "view",
      "type": "function"
    },
    {
      "inputs": [],
      "name": "decimals",
      "outputs": [
        {
          "internalType": "uint256",
          "name": "",
          "type": "uint256"
        }
      ],
      "stateMutability": "view",
      "type": "function"
    },
    {
      "inputs": [],
      "name": "name",
      "outputs": [
        {
          "internalType": "string",
          "name": "",
          "type": "string"
        }
      ],
      "stateMutability": "view",
      "type": "function"
    },
    {
      "inputs": [],
      "name": "symbol",
      "outputs": [
        {
          "internalType": "string",
          "name": "",
          "type": "string"
        }
      ],
      "stateMutability": "view",
      "type": "function"
    },
    {
      "inputs": [],
      "name": "totalSupply",
      "outputs": [
        {
          "internalType": "uint256",
          "name": "",
          "type": "uint256"
        }
      ],
      "stateMutability": "view",
      "type": "function"
    }
  ],
  "bytecode": "0x60806040526040518060400160405280600681526020017f54657468657200000000000000000000000000000000000000000000000000008152506000908051906020019061004f9291906100c1565b506040518060400160405280600481526020017f55534454000000000000000000000000000000000000000000000000000000008152506001908051906020019061009b9291906100c1565b50601260025569d3c21bcecceda10000006003553480156100bb57600080fd5b506101c4565b8280546100cd90610193565b90600052602060002090601f0160209004810192826100ef5760008555610136565b82601f1061010857805160ff1916838001178555610136565b82800160010185558215610136579182015b8281111561013557825182559160200191906001019061011a565b5b5090506101439190610147565b5090565b5b80821115610160576000816000905550600101610148565b5090565b7f4e487b7100000000000000000000000000000000000000000000000000000000600052602260045260246000fd5b600060028204905060018216806101ab57607f821691505b6020821081036101be576101bd610164565b5b50919050565b610459806101d36000396000f3fe608060405234801561001057600080fd5b50600436106100575760003560e01c806306fdde031461005c57806318160ddd1461007a57806327e235e314610098578063313ce567146100c857806395d89b41146100e6575b600080fd5b610064610104565b60405161007191906102dd565b60405180910390f35b610082610192565b60405161008f9190610318565b60405180910390f35b6100b260048036038101906100ad9190610396565b610198565b6040516100bf9190610318565b60405180910390f35b6100d06101b0565b6040516100dd9190610318565b60405180910390f35b6100ee6101b6565b6040516100fb91906102dd565b60405180910390f35b60008054610111906103f2565b80601f016020809104026020016040519081016040528092919081815260200182805461013d906103f2565b801561018a5780601f1061015f5761010080835404028352916020019161018a565b820191906000526020600020905b81548152906001019060200180831161016d57829003601f168201915b505050505081565b60035481565b60046020528060005260406000206000915090505481565b60025481565b600180546101c3906103f2565b80601f01602080910402602001604051908101604052809291908181526020018280546101ef906103f2565b801561023c5780601f106102115761010080835404028352916020019161023c565b820191906000526020600020905b81548152906001019060200180831161021f57829003601f168201915b505050505081565b600081519050919050565b600082825260208201905092915050565b60005b8381101561027e578082015181840152602081019050610263565b8381111561028d576000848401525b50505050565b6000601f19601f8301169050919050565b60006102af82610244565b6102b9818561024f565b93506102c9818560208601610260565b6102d281610293565b840191505092915050565b600060208201905081810360008301526102f781846102a4565b905092915050565b6000819050919050565b610312816102ff565b82525050565b600060208201905061032d6000830184610309565b92915050565b600080fd5b600073ffffffffffffffffffffffffffffffffffffffff82169050919050565b600061036382610338565b9050919050565b61037381610358565b811461037e57600080fd5b50565b6000813590506103908161036a565b92915050565b6000602082840312156103ac576103ab610333565b5b60006103ba84828501610381565b91505092915050565b7f4e487b7100000000000000000000000000000000000000000000000000000000600052602260045260246000fd5b6000600282049050600182168061040a57607f821691505b60208210810361041d5761041c6103c3565b5b5091905056fea2646970667358221220afe7b873d67d780f2e242505c3be12cdc97ce7d700be20c0748c8dd3db6f54f964736f6c634300080e0033",
  "immutableReferences": {},
  "source": "// SPDX-License-Identifier: GPL-3.0\npragma solidity >=0.8.0 <0.9.0;\n\ncontract Tether {\n  string public name = \"Tether\";\n  string public symbol = \"USDT\";\n  uint256 public decimals = 18;\n  uint256 public totalSupply = 1000000000000000000000000;\n  mapping(address => uint256) public balances;\n}\n",
  "sourcePath": "/Users/xolmer/code/contracts-test-ground/xolmerdefi/contracts/Tether.sol",
  "compiler": {
    "name": "solc",
    "version": "0.8.14+commit.80d49f37.Emscripten.clang"
  },
  "schemaVersion": "3.4.7",
  "updatedAt": "2022-06-02T11:05:19.902Z",
  "devdoc": {
    "kind": "dev",
    "methods": {},
    "version": 1
  },
  "userdoc": {
    "kind": "user",
    "methods": {},
    "version": 1
  }
}